:400000000080002011000000A1030000A103000008B5044B1A6803F53F5302331A6000F0C7F900BFFA46004010B5054C237833B9044B13B10448AFF300800123237010BD6F
:400040003081FF1F00000000E8110000084B10B51BB108490848AFF300800848036803B910BD074B002BFBD0BDE81040184700BF000000003481FF1FE8110000C880FF1F40
:40008000000000000000000070B500F065FA00F0EBFA00F027FB00F033FB044602E000F02FFB0446002CFAD000F02AFB01E000F027FB0028FBD0631EDBB2012B03D82646C5
:4000C00000F0FAFF03E00646204600F0F5FF00F0AFFC02460B461CA1D1E9000100F026FE00F00CFF044685B2284600F0DDF904EBD474C4F34F04204600F0DCF9284600F064
:400100005BFA204600F05EFA012E0BD1032000F0B1F9012000F036FA002000F0BFF9002000F044FA022EB6D1012000F0A3F9032000F028FA002000F0B1F9002000F036FA0A
:40014000A9E700BFAFF30080000000000088E340FEE700BFF0B40022174611E050F82760F3B226F0FF0608E001EB420511F812406D78A5550132013BDBB2002BF4D10137A3
:40018000132FEBD9F0BC7047064B1B78DBB203F00701054A11701B09013213704422034B1A707047CF0100496E5800407658004008B50A46002101F00EF808BD38B54FF484
:4001C0009C72274B1A801823264A137040F65F1102321180023213700222234B1A7008224FF040231A70032103F5007319701F4B1B78DBB21E490B701E4B1A8041F25122F6
:40020000023B1A80002419250CE01B4B1B7803F0010343EA440404F003044FF4F07000F093FA013D0DB1032CEFD115B90320FFF78FFF124B4FF480721A8007221A700022B8
:400240000F490A704820023108701A700222033B1A700C4A137843F00303137038BD00BF80400040824000400043004008010049A146004022420040254200400440004005
:4002800006400040A243004008B500F099FF08BD38B572B6334A137843F00403137000240CE0314D630019194A0011462A44084691882858FFF77CFF0134E4B2082CF0D95D
:4002C00000240CE02848A20011194B000344B3F84020D96B986BFFF7D7FF0134E4B2022CF0D922494FF09040FFF734FF204A137843F0020313701032137843F00203137065
:400300001C4C237843F040032370A2F58632513A137843F010031370082217491748FFF7B3FF0A2216491748FFF7AEFF082216491648FFF7A9FF164A137843F00803137034
:40034000144D61232B70FFF739FF81232B700122114B1A70FFF718FF0E2221460F48FFF793FF38BDE8460040EC1100005000004803500140A04300407806004802510040FC
:4003800080060048C05100408C06004812510040224300400048004004000840B043004008B500F0E1FE03680C2B00D1FEE7FEE708B5104E104D16E029686B68AC68002224
:4003C00004E051F8040B43F8040B0432A242F8D1E868002203E0002143F8041B04328242F9D11035013E002EE6D100F0C3FEFFF74BFEFEE7010000006812000008B5104A30
:40040000104B1A60104A136843F40073136000230AE0032B03D80D4A52F8231000E00C490C4A42F8231001332F2BF2D90A4B1A780A4B1A70074A0A4B1A60FFF729FF08BDF1
:400440000004FA050CED00E014ED00E000000000A10300000080FF1FBC760040C080FF1F08ED00E0024A137843F08003137070477564004010B400F00704C00000F038034E
:40048000054A117801F0C0011170117844EA03000843107010BC704775640040014B1880704700BF08680040014B1880704700BF88680040014B1880704700BF4868004032
:4004C000014B1870704700BF85640040014B1878704700BF65640040014B188880B27047A868004008B501E0FFF7F6FFFFF7EEFF10F0100FF8D108BD10B5154A137803F04E
:40050000C00343F00D0313701F32137843F001031370104C237843F00103237042F21070FFF7BCFF42F21070FFF7BEFF0020FFF7C1FF0020FFF7C4FF00F00EF9237843F09B
:400540001003237000F00CF9FFF7CCFF10BD00BF756400409564004008B5054B1B7823B9FFF7CAFF0122024B1A70FFF77BFF08BD4C81FF1F024A137843F080031370704725
:400580007764004010B400F00704C00000F03803054A117801F0C0011170117844EA03000843107010BC704777640040014B1880704700BF0C680040014B1880704700BFE0
:4005C0006C680040014B1880704700BF4C680040014B1870704700BF87640040014B1878704700BF67640040014B188880B27047AC68004008B501E0FFF7F6FFFFF7EEFF32
:4006000010F0100FF8D108BD10B5154A137803F0C00343F00D0313701F32137843F001031370104C237843F00103237042F21070FFF7BCFF42F21070FFF7BEFF0020FFF7A9
:40064000C1FF0020FFF7C4FF00F086F8237843F01003237000F084F8FFF7CCFF10BD00BF776400409764004008B5054B1B7823B9FFF7CAFF0122024B1A70FFF77BFF08BD86
:400680004D81FF1F7222084B1A702022A3F201131A700622613B1A70472210331A70002203F5A8731A7070478A65004010B500F053F804460A4A137843F020031370A2F2A9
:4006C0000112137843F010031370FF32137843F01003137000F02AF8204600F041F810BD9A65004008B5054B1B7823B9FFF7CAFF0122024B1A70FFF7D9FF08BD4E81FF1FAC
:40070000084B1B78DBB213F0200F06D0064A1078C0B213F01E0F02D17047002070470020704700BF6964004049650040054A137843F0010313701032137843F001031370B7
:40074000704700BFA24300400230800803D000BF01380046FCD17047EFF3108072B6704780F31088704700BF81F0004102E000BF83F0004330B54FEA41044FEA430594EA52
:40078000050F08BF90EA020F1FBF54EA000C55EA020C7FEA645C7FEA655C00F0E2804FEA5454D4EB5555B8BF6D420CDD2C4480EA020281EA030382EA000083EA010180EACC
:4007C000020281EA0303362D88BF30BD11F0004F4FEA01314FF4801C4CEA113102D0404261EB410113F0004F4FEA03334CEA133302D0524263EB430394EA050F00F0A78019
:40080000A4F10104D5F1200E0DDB02FA0EFC22FA05F2801841F1000103FA0EF2801843FA05F359410EE0A5F120050EF1200E012A03FA0EFC28BF4CF0020C43FA05F3C018B4
:4008400051EBE37101F0004507D54FF0000EDCF1000C7EEB00006EEB0101B1F5801F1BD3B1F5001F0CD349085FEA30004FEA3C0C04F101044FEA445212F5800F80F09A80E1
:40088000BCF1004F08BF5FEA500C50F1000041EB045141EA050130BD5FEA4C0C404141EB010111F4801FA4F10104E9D191F0000F04BF01460020B1FA81F308BF2033A3F121
:4008C0000B03B3F120020CDA0C3208DD02F1140CC2F10C0201FA0CF021FA02F10CE002F11402D8BFC2F1200C01FA02F120FA0CFCDCBF41EA0C019040E41AA2BF01EB045184
:40090000294330BD6FEA04041F3C1CDA0C340EDC04F11404C4F1200220FA04F001FA02F340EA030021FA04F345EA030130BDC4F10C04C4F1200220FA02F001FA04F340EA7D
:400940000300294630BD21FA04F0294630BD94F0000F83F4801306BF81F480110134013D4EE77FEA645C18BF7FEA655C29D094EA050F08BF90EA020F05D054EA000C04BFB4
:400980001946104630BD91EA030F1EBF0021002030BD5FEA545C05D14000494128BF41F0004130BD14F580043CBF01F5801130BD01F0004545F0FE4141F470014FF0000093
:4009C00030BD7FEA645C1ABF194610467FEA655C1CBF0B46024650EA013406BF52EA033591EA030F41F4002130BD00BF90F0000F04BF0021704730B54FF4806404F132041D
:400A00004FF000054FF0000150E700BF90F0000F04BF0021704730B54FF4806404F1320410F0004548BF40424FF000013EE700BF42004FEAE2014FEA31014FEA02701FBF97
:400A400012F07F4393F07F4F81F06051704792F0000F14BF93F07F4F704730B54FF4607401F0004521F0004120E700BF50EA010208BF704730B54FF000050AE050EA0102C7
:400A800008BF704730B511F0004502D5404261EB41014FF4806404F132045FEA915C3FF4DCAE4FF003025FEADC0C18BF03325FEADC0C18BF033202EBDC02C2F1200300FA08
:400AC00003FC20FA02F001FA03FE40EA0E0021FA02F11444C1E600BF70B54FF0FF0C4CF4E06C1CEA11541DBF1CEA135594EA0C0F95EA0C0F00F0DEF82C4481EA030621EA53
:400B00004C5123EA4C5350EA013518BF52EA033541F4801143F4801338D0A0FB02CE4FF00005E1FB02E506F00042E0FB03E54FF00006E1FB03569CF0000F18BF4EF0010E73
:400B4000A4F1FF04B6F5007F64F5407404D25FEA4E0E6D4146EB060642EAC62141EA55514FEAC52040EA5E504FEACE2EB4F1FD0C88BFBCF5E06F1ED8BEF1004F08BF5FEA38
:400B8000500E50F1000041EB045170BD06F0004646EA010140EA020081EA0301B4EB5C04C2BFD4EB0C0541EA045170BD41F480114FF0000E013C00F3AB8014F1360FDEBF8D
:400BC000002001F0004170BDC4F10004203C35DA0C341BDC04F11404C4F1200500FA05F320FA04F001FA05F240EA020001F0004221F0004110EBD37021FA04F642EB06010A
:400C00005EEA430E08BF20EAD37070BDC4F10C04C4F1200500FA04F320FA05F001FA04F240EA020001F0004110EBD37041F100015EEA430E08BF20EAD37070BDC4F12005C7
:400C400000FA05F24EEA020E20FA04F301FA05F243EA020321FA04F001F0004121FA04F220EA020000EBD3705EEA430E08BF20EAD37070BD94F0000F0FD101F000464000B6
:400C800041EB010111F4801F08BF013CF7D041EA060195F0000F18BF704703F00046520043EB030313F4801F08BF013DF7D043EA0603704794EA0C0F0CEA135518BF95EAD8
:400CC0000C0F0CD050EA410618BF52EA4306D1D181EA030101F000414FF0000070BD50EA410606BF1046194652EA430619D094EA0C0F02D150EA013613D195EA0C0F05D1D7
:400D000052EA03361CBF104619460AD181EA030101F0004141F0FE4141F470014FF0000070BD41F0FE4141F4780170BD70B54FF0FF0C4CF4E06C1CEA11541DBF1CEA1355B5
:400D400094EA0C0F95EA0C0F00F0A7F8A4EB050481EA030E52EA03354FEA013100F088804FEA03334FF0805545EA131343EA12634FEA022245EA111545EA10654FEA002697
:400D80000EF000419D4208BF964244F1FD0404F5407402D25B084FEA3202B61A65EB03055B084FEA32024FF480104FF4002CB6EB020E75EB030E22BFB61A754640EA0C00F1
:400DC0005B084FEA3202B6EB020E75EB030E22BFB61A754640EA5C005B084FEA3202B6EB020E75EB030E22BFB61A754640EA9C005B084FEA3202B6EB020E75EB030E22BF18
:400E0000B61A754640EADC0055EA060E18D04FEA051545EA16754FEA06164FEAC30343EA52734FEAC2025FEA1C1CC0D111F4801F0BD141EA00014FF000004FF0004CB6E771
:400E400011F4801F04BF01430020B4F1FD0C88BFBCF5E06F3FF6AFAEB5EB030C04BFB6EB020C5FEA500C50F1000041EB045170BD0EF0004E4EEA113114EB5C04C2BFD4EB06
:400E80000C0541EA045170BD41F480114FF0000E013C90E645EA060E8DE60CEA135594EA0C0F08BF95EA0C0F3FF43BAF94EA0C0F0AD150EA01347FF434AF95EA0C0F7FF43D
:400EC00025AF104619462CE795EA0C0F06D152EA03353FF4FDAE1046194622E750EA410618BF52EA43067FF4C5AE50EA41047FF40DAF52EA43057FF4EBAE12E74FEA41025F
:400F000012F5001215D211D56FF47873B3EB625212D94FEAC12343F0004343EA505311F0004F23FA02F018BF404270474FF00000704750EA013005D111F0004008BF6FF0D0
:400F4000004070474FF00000704700BF80F0004002E000BF81F0004142001FBF5FEA410392EA030F7FEA226C7FEA236C6AD04FEA1262D2EB1363C1BFD2184140484041408A
:400F8000B8BF5B42192B88BF704710F0004F40F4000020F07F4018BF404211F0004F41F4000121F07F4118BF494292EA030F3FD0A2F1010241FA03FC10EB0C00C3F120032C
:400FC00001FA03F100F0004302D5494260EB4000B0F5000F13D3B0F1807F06D340084FEA310102F10102FE2A51D2B1F1004F40EBC25008BF20F0010040EA030070474900A8
:4010000040EB000010F4000FA2F10102EDD1B0FA80FCACF1080CB2EB0C0200FA0CF0AABF00EBC25052421843BCBFD0401843704792F0000F81F4000106BF80F40000013241
:40104000013BB5E74FEA41037FEA226C18BF7FEA236C21D092EA030F04D092F0000F08BF0846704790EA010F1CBF0020704712F07F4F04D1400028BF40F00040704712F173
:4010800000723CBF00F50000704700F0004343F0FE4040F4000070477FEA226216BF08467FEA23630146420206BF5FEA412390EA010F40F4800070474FF0000304E000BFB2
:4010C00010F0004348BF40425FEA000C08BF704743F0964301464FF000001CE050EA010208BF70474FF000030AE000BF50EA010208BF704711F0004302D5404261EB410137
:401100005FEA010C02BF84460146002043F0B64308BFA3F18053A3F50003BCFA8CF2083AA3EBC25310DB01FA02FC634400FA02FCC2F12002BCF1004F20FA02F243EB0200C7
:4011400008BF20F00100704702F1200201FA02FCC2F1200250EA4C0021FA02F243EB020008BF20EADC707047014B1868704700BF2C81FF1F0E4B70B51E460E4C0025E41AF8
:40118000A410A54204D056F8253098470135F8E700F058F8084B094C1E46E41AA4100025A54204D056F8253098470135F8E770BD50120000501200005012000058120000F7
:4011C00010B5431E0A44914204D011F8014B03F8014FF8E710BD03460244934202D003F8011BFAE77047000000000000205100405000F05100401000000001408004000547
:401200000140800100070140000900140140000800400140000A004C014000020050014020000000605200407005004806008004014078050048800080060140F8050048A8
:4012400080004300F8B500BFF8BC08BC9E4670474D000000FD030000F8B500BFF8BC08BC9E4670472900000078120000C880FF1F68000000200000000000000000000000BF
:4012800000000000000000000000000000000000000000000000000000000000421200000000000000000000000000000000000000000000000000000000000000000000DA
:4012C00000000000000000000000000000000000000000000000000000000000CC80FF1F000000000000000000000000000000000000000000000000000000000000000084
:4013000000000000000000000000000000000000000000000000000000000000000000000000000000000000000000000000000000000000000000000000000000000000AD
:40134000000000000000000000000000000000000000000000000000000000000000000000000000000000000000000000000000000000000000000000000000000000006D
:40138000000000000000000000000000000000000000000000000000000000000000000000000000000000000000000000000000000000000000000000000000000000002D
:4013C00000000000000000000000000000000000000000000000000000000000000000000000000000000000000000000000000000000000000000000000000000000000ED
:020000040003F7
:0200000480007A
:4000000002520040036400400265004028040140390501401E06014031070140580801403C090140041701405218014048190140451A0140441B01400641014006420140F3
:400040000343014002480140084D0140055001400009010A850D870F8938880F8A7201010A1F0C100E0418181A0324072608270128012A122C062E11321F361F37013F4058
:400080004030410649FF4AFF4BFF4DA04F045018580459045A045C015D015F01604062C06440654066C068C06AC06CC06EC0030A04010506060509100D020E010F20102831
:4000C00011401514174119881A011C401D8C1E081F0822402502270229082D822E20370138013E1643084508460448044D0154045510562757125C405D015E086C286D54A7
:400100006E146F01774081809680B640C0F3C2B2C4F7CAB2CC80CEE1D062D204D6D0EA1001011D0131013F014030410449FF4AFF4BFF4DA04F04501859045A045D015F01C5
:400140006040624063A864406540664067A868406A406BA86C406D206E406FA800240242084009080A800B0A111419A41B02200521082290278029082A902B80304031088C
:400180003210368039543E014108430345084701481049095210538559A569546A806B02728089148A128F0192019401AB02C00FC20FC406CA0FCC1ECE8ED0C3D60F004090
:4001C000050706030708081409600C1C0E220F2011101304142C15601611181019011B122118230324302506260C271128092A102D403160321F3460351F382039023F018F
:400200004001470449FF4A074BFF4C404D204EF04F055008580459045A045C105F01604061A86240632081188304860C870C8A108B088C0C8E0394019503960699039A1011
:400240009D029E039F01A101A302A608A718A801AA0EAB14AF04B31CB410B60FB703BA80BB08BE10D418D804D904DB04DF0100200180032005840684080809400B080C1077
:400280000D100F1010101108131016081704180619801D041F30210422842310274828082A8A2B202D842F8030283280340836103705380239283C083E803F104740554476
:4002C000568059016004630188048A108B018F80C0F7C267C466CADFCCEECE77D010D601D80CE0E0E420AE40AF80B302EA080202060208010E020F05120114011503170CD4
:400300001A012002210323042402270829032B042D0A2F0430023201350F38083B203E015401580459045B045F018009824484038A038D01920395019603980799019A380B
:400340009C03A012A244A49CA89CA901AC80B003B101B280B41CB660BE40BF01C062C103C205C401C50EC60CC805C9FFCAFFCBFFCC62CDA0CEF0CF41D00CD804D904DA0496
:40038000DF01E640E702E910EA30EB10ED10EE10EF12000A0308059006B0072009400A240B400C100D080F4010281142128014401704180119091A141B081C201E80220166
:4003C000270429182A082C402D802E202F10301031083210370438803B403E80400141084208480449104A024B0852405D015E885F2088408A0492089320970999849A80EB
:400400009D019E069F04A280A438AF08B104C0FEC27FC43FCAF4CC46CE18D00ED20CD6F0E8200001012702400318040C05180623080F09080A200C230E0C0F401002134000
:40044000153F16231803193C1B021C101D1C1F212008210424042704280C2B232C2F2D10302C31383240340F351F361037403A223B283E403F4056025713580459045B04E2
:400480005F019801B401BE10C034C106C5EEC6C0C70BC81BC9FFCAFFCBFFCEF0CF44D00CD804DA04DF01E6C0EA40EB02004201200220080809810A140F041001131A188092
:4004C00019981A801E08210822322301280829482A023108325238283A403B02468047044D014E044F0456145A026828694070147140731A80408194830184018548880150
:400500008A028DA08E40921E948095419620970199049AC09B049D109E16A101A429A548A606C00FC24FC40FCA0FCC0FCE0FD0C0D220D6015004550257085B40D4E0D62061
:40054000800494089F40A502B708E680A502AB40EE80AD02EA401040771088408F10C408DE04E201E40200030A020C0310011C0180800000400000000010800400070208F1
:4005800000010212400010007C06001160000C000000000000008000180044201C00200004184803002001007C1F01000200802000000000000050403002000000D0100235
:4005C0003AFFFFFF00AF0F04180087000500000004040404111100014000C0004040C000C000C000C000C000000000000000000000000000000000003E00000080380040B5
:4006000080084090203008880C002200000040F80000010230C00618000300000E00100102802420000000048000400401033EF802000000000005003004000000D20415FB
:400640003FFFFFFF00AF0F0418008700070000000404040411110001400040A8404040A8400040A8402040A800000000000000000000000000000000000F0F000F00000076
:40068000800040808000800000000000000B0B00000000000000000000000000000000000000000000000000000000000000000000000000000000000000000000000000E4
:4006C00000000000000000000000000000000000000000000000000000000000000000000000000000000000000000000000000000000000000000000000000000000000FA
:4007000000000000000000000000000000000000000000000000000000000000000000000000000000000000000000000000000000000000000000000000000000000000B9
:400740000000000000000000000000000000000000000000000000000000000000000000000000000000000000000000000000000000000000000000000000000000000079
:400780000000000000000000000000000000000000000000000000000000000000000000000000000000000000000000000000000000000000000000000000000000000039
:0200000490006A
:0400000000004005B7
:0200000490105A
:04000000BC90ACAF55
:0200000490303A
:02000000C01E20
:0200000490402A
:4000000000000000000000000000000000000000000000000000000000000000000000000000000000000000000000000000000000000000000000000000000000000000C0
:400040000000000000000000000000000000000000000000000000000000000000000000000000000000000000000000000000000000000000000000000000000000000080
:400080000000000000000000000000000000000000000000000000000000000000000000000000000000000000000000000000000000000000000000000000000000000040
:4000C0000000000000000000000000000000000000000000000000000000000000000000000000000000000000000000000000000000000000000000000000000000000000
:0200000490501A
:0C00000000012E16106900012E1ED08792
:00000001FF